:020000040800F2
:200000008008002021020008951C00085F1A0008911C0008F50400081521000800000000DF
:20002000000000000000000000000000330200082D0500080000000037020008A31D000840
:200040008D2300083B0200083B0200083B0200083B0200083B0200083B0200083B02000805
:200060003B0200083B0200083B0200083B0200083B0200083B0200083B0200083B02000858
:200080003B0200083B0200083B0200083B0200083B0200083B0200083B0200083B02000838
:2000A0003B0200083B0200083B0200083B0200083B0200083B0200083B0200083B02000818
:2000C0003B0200083B0200083B0200083B0200083B0200083B0200083B0200083B020008F8
:2000E0003B0200083B0200083B0200083B0200083B0200083B0200083B0200083B020008D8
:200100003B0200083B0200083B0200083B020008711F00083B0200083B0200083B02000864
:200120003B0200083B0200083B0200083B0200083B02000800000000000000003B02000821
:200140003B0200083B0200083B0200083B0200083B0200083B0200083B0200083B02000877
:200160003B0200083B0200083B0200083B0200083B0200083B0200080000000000000000E1
:200180003B02000800F002F800F03AF80AA090E8000C82448344AAF10107DA4501D100F0CF
:2001A0002FF8AFF2090EBAE80F0013F0010F18BFFB1A43F001031847FC2300001C240000BB
:2001C000103A24BF78C878C1FAD8520724BF30C830C144BF04680C607047000000230024A9
:2001E00000250026103A28BF78C1FBD8520728BF30C148BF0B6070471FB51FBD10B510BDDB
:2002000000F0FBF81146FFF7F7FF02F0B9F900F019F903B4FFF7F2FF03BC00F021F90000AB
:200220000948804709480047FEE7FEE7FEE7FEE7FEE7FEE7FEE7FEE7FEE7FEE70448054982
:20024000054A064B70470000311E00088501000880020020800800208004002080040020D0
:2002600053EA020C00F069802DE9F04B4FF00006002B1FBFB3FA83F503FA05F424FA05F687
:200280005E4012BF1643B2FA82F502FA05F4C5F120051EBF22FA05FC44EA0C04203556EAD6
:2002A000044C4FEA144418BF641C4FF000084FF00009904271EB030C39D3002919BFB1FA82
:2002C00081F701FA07F6B0FA80F700FA07F6C7F120071EBF20FA07FC46EA0C062037B6FB73
:2002E000F4FCA7EB0507103F07F01F0BCBF120060CFA0BFB2CFA06F644BFB3460026202F7F
:20030000A4BF5E464FF0000B5BEA060C08BF4FF0010B19EB0B09ABFB027C48EB0608C01BCB
:2003200006FB02CC0BFB03CC71EB0C01C1E70B46024641464846BDE8F08B13B54FF0000033
:200340004FF00001AFF30080BDE81C40704740EA010310B59B070FD1042A0DD310C808C957
:20036000121F9C42F8D020BA19BA884201D9012010BD4FF0FF3010BD1AB1D30703D0521C46
:2003800007E0002010BD10F8013B11F8014B1B1B07D110F8013B11F8014B1B1B01D1921E91
:2003A000F1D1184610BD4FF0000200B5134694469646203922BFA0E80C50A0E80C50B1F1A7
:2003C0002001BFF4F7AF090728BFA0E80C5048BF0CC05DF804EB890028BF40F8042B08BF13
:2003E000704748BF20F8022B11F0804F18BF00F8012B7047704770477047754600F02CF884
:20040000AE4605006946534620F00700854618B020B5FFF713FFBDE820404FF000064FF08B
:2004200000074FF000084FF0000B21F00701AC46ACE8C009ACE8C009ACE8C009ACE8C009A5
:200440008D46704710B50446AFF300802046BDE81040FFF7DEBE00000048704720020020B3
:2004600001491820ABBEFEE726000200704700000C480068B0F1005F10D90A4800680A491B
:2004800088420BD2074840680649884206D9084640680649884201D2002070474FF0FF309F
:2004A000FBE700000000020800000220008003080C480068B0F1005F10D90A4800680A49F1
:2004C00088420BD2074840680849884206D9054840680749884201D2002070474FF0FF305D
:2004E000FBE700000000040800000220000002080080030800BFFEE72DE9F04104460D46CF
:2005000016462746A846052001F0E6FF4FF4FA6001F0B2FF32464146384602F005F8324606
:2005200029462046FFF713FFBDE8F0817047704710B5002201B909E0012901D10A0205E0E3
:20054000022901D10A0201E04FF44072114B1B6823F440730F4C236023461B681343236070
:2005600023461B6823F0F803236023461B68F82494FAA4F4B4FA84F400FA04F444F002047E
:200580002343044C236023461B6843F48033236010BD0000103C0240074A126822F44072DB
:2005A000054B1A601A4612681A601A46126842F001021A6001707047103C024010B50949C7
:2005C000096821F44071074C21602146096841F4407121602146096841F0010121600260E3
:2005E000436010BD103C0240084A126822F44072064B1A601A46126842F480721A601A46C2
:20060000126842F001021A6001807047103C0240084A126822F44072064B1A601A461268B2
:2006200042F400721A601A46126842F001021A6001607047103C02402348006800F0100096
:2006400040B12248C06940F008002049C86110201D4908601C48006800F0200040B11B481E
:20066000C06940F004001949C8612020164908601548006800F0400040B11448C06940F0F0
:2006800002001249C86140200F4908600E48006800F0800040B10D48C06940F001000B4992
:2006A000C8618020084908600748006800F0020040B10648C06940F010000449C8610220CF
:2006C00001490860704700000C3C02400002002070B50446002500201449C86100F0B6F92C
:2006E000054609E0601C38B124B100F0AFF9401BA04201D9032070BD0D48006800F480302C
:200700000028EFD10A48006800F0010010B10120074908600648006800F0F20018B1FFF755
:200720008BFF0120E7E70020E5E70000000200200C3C0240014691F83500022803D0802006
:20074000486501207047052081F835000868006820F001000A6810600020F3E703480068C9
:2007600040F000400149086000207047103C02402DE9F04106460F4614461D464FF0010805
:2007800000BF1F48007E012802D10220BDE8F08101201B49087600BF4CF25030FFF798FF74
:2007A0008046B8F1000F23D126B9E1B23846FFF7F3FE12E0012E04D1A1B23846FFF714FF20
:2007C0000BE0022E04D121463846FFF721FF04E022462B463846FFF7F1FE4CF25030FFF75A
:2007E00077FF80460748006820F001000549086000BF00200249087600BF4046C6E70000A5
:2008000000020020103C02400748006800F0004030B1064804490C3908600548086001E082
:20082000012070470020FCE7103C024023016745AB89EFCDF8B502460B46002500240020E0
:200840000021E1E0012606FA01F51E6806EA0504AC4273D15E68022E02D05E68122E13D136
:20086000CF0802F1200656F827004E07F70E0F26BE40B0434F07FF0E1E69BE403043CF0861
:2008800002F1200646F8270010684F000326BE40B0431E7906F003064F00BE403043106033
:2008A0005E68012E08D05E68022E05D05E68112E02D05E68122E13D190684F000326BE4071
:2008C000B0434F00DE68BE4030439060506801268E40B0431E79C6F300168E403043506038
:2008E000D0684F000326BE40B0434F009E68BE403043D0605E6806F08056B6F1805FA8D1D0
:2009000000BF00260096424E366846F48046404F3E603E46366806F48046009600BF00BF0B
:200920003C4E8F0856F827008E07370F0F26BE40B043394EB24202D1002629E063E0374EDB
:20094000B24201D1012623E0354EB24201D102261EE0344EB24201D1032619E0324EB2425A
:2009600001D1042614E0314EB24201D105260FE02F4EB24201D106260AE02E4EB24201D18D
:20098000072605E02C4EB24201D1082600E009268F073F0FBE4030431E4E8F0846F827000B
:2009A000264E3068A0435E6806F48036B6F5803F00D12043214E3060361D3068A0435E68A1
:2009C00006F40036B6F5003F00D120431B4E361D3060361D3068A0435E6806F48016B6F5AE
:2009E000801F00D12043154E08363060361D3068A0435E6806F40016B6F5001F00D1204351
:200A00000E4E0C363060491C1029FFF41BAFF8BD44380240083801400000024000040240D1
:200A200000080240000C0240001002400014024000180240001C024000200240003C0140DF
:200A40000AB1816101E00B048361704701480068704700000800002002480068401C014986
:200A6000086070470800002010B5032000F084F80F2000F005F800F017F8002010BD0000D3
:200A800070B50446074800684FF47A71B0FBF1F5284600F0E6FD00222146501E00F02EF823
:200AA000002070BD0000002008B500BF002000901148006840F480400F4908600846006872
:200AC00000F48040009000BF00BF00BF00200090081F006840F08050091F08600846006810
:200AE00000F08050009000BF00BF00220F21901E00F004F808BD0000443802402DE9F05F54
:200B000080460D461646002701F0C6F8074639462A46334601F00700C0F1070ABAF1040F5D
:200B200002D94FF0040A01E0C0F1070AD14600F1040ABAF1070F02D24FF0000A01E0A0F184
:200B4000030AD4464FF0010A0AFA09FAAAF1010A0AEA020A0AFA0CFA4FF0010B0BFA0CFB16
:200B6000ABF1010B0BEA030B4AEA0B042146404601F09AF8BDE8F09F00BF00F00702064BDA
:200B800019684FF6FF031940044B0B4343EA0221014B196000BF70470CED00E00000FA0534
:200BA000F8B5044600250026207800F0010010B9206808283BD1002061498866FFF746FFEA
:200BC000054606E0FFF742FF401B022801D90320F8BD5C480068C0F3C0600028F2D147F66F
:200BE000C07191FAA1F1B1FA81F1606888404FF0E04292FAA2F2B2FA82F2A1689140084334
:200C000050498431086001204D498866FFF71EFF054606E0FFF71AFF401B022801D90320A4
:200C2000D6E748480068C0F3C0600028F2D0207800F0040004287DD100BF00200090414844
:200C40004030006840F080503E49403108600846006800F08050009000BF00BF3A480068EE
:200C600040F4807038490860FFF7F0FE054606E0FFF7ECFE401B022801D90320A8E73248E7
:200C8000006800F480700028F2D02E487030006800F440764EB3A08900F44070B04224D042
:200CA00028487030006820F4407601202749086000200860234870300660006800F00100A7
:200CC00098B1FFF7C3FE054608E0FFF7BFFE401B41F28831884201D9032079E719487030BF
:200CE0000068C0F340000028EFD000BFA08900F44070B0F5407F0CD112480830006820F4D7
:200D0000F810134AE168114008430E490831086007E00C480830006820F4F810094908310F
:200D20000860084870300068A189C1F30B010843044900E002E07031086000BF002047E799
:200D4000000047420038024000700040400E4742FFFCFF0F70B504460D460CB9012070BD2B
:200D60005948006800F00F00A84209D256490D700846006800F00F00A84201D00120EEE724
:200D8000207800F0020002281DD1207800F00400042805D14D48006840F4E0504B490860C6
:200DA000207800F00800082805D14848006840F46040464908604548006820F0F000A168DC
:200DC000084342490860207800F0010090B36068012807D13D4808380068C0F34040A0B987
:200DE0000120BCE76068022807D1384808380068C0F3406048B90120B1E73448083800680C
:200E0000C0F3400008B90120A9E73048006820F00300616808432D490860FFF717FE064631
:200E200009E0FFF713FE801B41F28831884202D9032094E707E02548006800F00C00616877
:200E4000B0EB810FEDD12048006800F00F00A84209D91D490D700846006800F00F00A8428C
:200E600001D001207BE7207800F00400042807D11648006820F4E050E1680843134908602C
:200E8000207800F00800082808D11048006820F46040216940EAC1000C49086000F01CF80F
:200EA0000A49096801F0F001F02292FAA2F2B2FA82F2D140064A515CC840064908600F203E
:200EC000FFF7DEFD00204AE7003C0240083802409C250008000000202DE9F0470024002571
:200EE0000026A1462548006800F00C0020B1042805D008283AD105E0DFF8849039E0DFF847
:200F0000849036E01D48001F006800F03F041B48001F006800F4800078B11A481749091F17
:200F20000968C1F38811A0FB01700146224600233846FFF795F905460EE011480F49091F01
:200F40000968C1F38811A0FB01700146224600233846FFF785F905460848001F0068C0F32E
:200F60000140401C4600B5FBF6F902E0DFF8109000BF00BF4846BDE8F087000008380240EC
:200F80000024F40000127A0038B504460CB9012038BD207800F00100002848D0DE48006844
:200FA00000F00C0004280DD0DB48006800F00C00082811D1D848001F006800F48000B0F5D3
:200FC000800F09D1D44808380068C0F3404070B3606860BB0120DBE72079CF49891F0870F7
:200FE000606890B1FFF732FD054606E0FFF72EFD401B642801D90320CAE7C7480838006825
:20100000C0F340400028F1D011E0FFF71FFD054606E0FFF71BFD401B642801D90320B7E7F0
:20102000BD4808380068C0F340400028F1D1207800F00200022869D1B748006800F00C0095
:2010400058B1B548006800F00C00082821D1B248001F006800F48000D8B9AF4808380068DF
:20106000C0F3400020B1E068012801D001208FE7A9480838006820F0F800F82292FAA2F2F8
:20108000B2FA82F2216991400843A349083908603CE0E06828B30120A0490860FFF7D6FC7C
:2010A000054606E0FFF7D2FC401B022801D903206EE7994808380068C0F340000028F1D0FF
:2010C00095480838006820F0F800F82292FAA2F2B2FA82F22169914008438F490839086002
:2010E00014E000208D490860FFF7B0FC054606E0FFF7ACFC401B022801D9032048E78648AE
:2011000008380068C0F340000028F1D1207800F0080008282CD16069A8B101208049086019
:20112000FFF794FC054606E0FFF790FC401B022801D903202CE778486C300068C0F340002A
:201140000028F1D014E0002075490860FFF77EFC054606E0FFF77AFC401B022801D90320DD
:2011600016E76D486C300068C0F340000028F1D1207800F00400042857D100BF002000908D
:2011800065483830006840F080506349383108600846006800F08050009000BF00BF614828
:2011A000006840F480705F490860FFF74FFC054606E0FFF74BFC401B022801D90320E7E695
:2011C0005848006800F480700028F2D0207A524968310870A068A0B1FFF738FC054608E03D
:2011E000FFF734FC401B41F28831884201D90320CEE6494868300068C0F340000028EFD09C
:2012000013E0FFF723FC054608E0FFF71FFC401B41F28831884201D90320B9E63E486830B7
:201220000068C0F340000028EFD1A069F0B33A48006800F00C00082869D0A069022850D11C
:20124000002036490866FFF701FC054606E0FFF7FDFB401B642801D9032099E62E48083856
:201260000068C0F340600028F1D1D4E90701084347F6C07292FAA2F2B2FA82F2616A91406E
:2012800008430122A16AC2EB51014FF4403292FAA2F2B2FA82F2914008434FF0706292FA28
:2012A000A2F2B2FA82F2E16A914000E031E008431949091F0860012018490866FFF7C6FB89
:2012C000054606E0FFF7C2FB401B642801D903205EE6114808380068C0F340600028F1D0C5
:2012E00017E000200D490866FFF7B0FB054606E0FFF7ACFB401B642801D9032048E6064844
:2013000008380068C0F340600028F1D101E001203EE600203CE60000083802400000474275
:20132000800E47420070004010B504460CB9012010BD606A00B900BF0021A16294F85100E1
:2013400028B9002084F85000204600F033F8022084F851002068006820F04000216808601F
:20136000D4E901010843E16808432169084361690843218B01F400710843E1690843216A68
:201380000843A16A0843216808600421A06901EA1040616A0843216848602068C06920F446
:2013A00000602168C86100206065012084F851000020BDE710B586B00446142101A8FEF76C
:2013C000F2FF1B49206888422FD100BF002000901848006840F480501649086008460068AE
:2013E00000F48050009000BF00BF00BF0020009010481438006840F001000E491439086063
:201400000846006800F00100009000BF00BFE0200190022002900020039003200490052043
:20142000059001A90448FFF705FA06B010BD00000030014044380240000002402DE9FE4FD5
:2014400004460D4616461F46DDF830804FF0000A0020029081464FF0010B019000BF94F8C0
:201460005000012802D10220BDE8FE8F012084F8500000BFFFF7EAFA814694F851A060683A
:201480000290BAF1010F0BD00298B0F5827F04D1A06810B9BAF1040F02D002200190D6E045
:2014A0000DB106B117B901200190D0E094F85100012802D1052084F8510000206065A663CC
:2014C000E787A7872563E786A786206460642068006800F04000402805D02068006840F089
:2014E000400021680860E068B0F5006F45D1606810B1E08E012806D128882168C860AD1C28
:20150000E08E401EE08631E0BBF1000F11D0E08E00280EDD2068806800F00200022808D106
:2015200028882168C860AD1CE08E401EE0864FF0000BE08F00280DDD2068806800F0010023
:2015400040B12068C0683080B61CE08F401EE0874FF0010B08F1010040B1FFF777FAA0EB0C
:201560000900404502D30320019070E0E08E0028CADCE08F0028C7DC44E0606810B1E08E73
:20158000012806D12878216808736D1CE08E401EE08631E0BBF1000F11D0E08E00280EDDBE
:2015A0002068806800F00200022808D115F8010B21680873E08E401EE0864FF0000BE08FBE
:2015C00000280DDD2068806800F0010040B12068C06806F8010BE08F401EE0874FF0010B6E
:2015E00008F1010040B1FFF731FAA0EB0900404502D3032001902AE0E08E0028CADCE08F88
:201600000028C7DC4346012202212046CDF8009000F072FB10B10320019018E04A46414694
:20162000204600F055FB20B101200190202060650DE0A06850B900BF002000902068C0685F
:20164000009020688068009000BF00BF00BF012084F8510000BF002084F8500000BF0198CC
:2016600002E770B504462546681EB0F1807F01D301200FE0681E4FF0E02148610F214FF0BF
:20168000FF3000F011FB00204FF0E021886107200861002070BD024600BF92F83C00012803
:2016A00001D102207047012082F83C0000BF022082F83D001068406820F07000136858603D
:2016C000106840680B681843136858601068806820F0800013689860106880684B68184318
:2016E00013689860012082F83D0000BF002082F83C0000BF00BFD5E70146022081F83D00B1
:201700000868006840F001000A681060012081F83D00002070470146022081F83D0000BF52
:201720000868006A41F21112104050B90868006A9210104028B90868006820F001000A6818
:20174000106000BF012081F83D0000207047000010B586B00446142101A8FEF724FE2068EA
:20176000B0F1804F1DD100BF002000902948006840F00200274908600846006800F0020011
:20178000009000BF00BF08200190022002900020039004900120059001A91F48FFF74AF888
:2017A00035E01E49206888421DD100BF002000901848006840F00200164908600846006887
:2017C00000F00200009000BF00BF20200190022002900020039004900220059001A90E4886
:2017E000FFF728F813E00E49206888420FD100BF002000900748006840F002000549086049
:201800000846006800F00200009000BF00BF06B010BD00003038024000040240000400405B
:201820000008004010B504460CB9012010BD94F83D0028B9002084F83C00204600F00CF8C2
:20184000022084F83D00211D206800F01BFB012084F83D000020E9E708B50168B1F1804F80
:201860000FD100BF002100911A49096841F00101184A11601146096801F00101009100BF32
:2018800027E0154A016891420FD100BF002100911049096841F002010E4A116011460968C6
:2018A00001F00201009100BF13E00C4A016891420FD100BF002100910649096841F0040118
:2018C000044A11601146096801F00401009100BF00BF08BD40380240000400400008004071
:2018E000704700002DE9F0470446206805682068C668206847694FF00008C14605F00F085D
:20190000B8F1000F0AD105F0200038B106F0200020B1204600F05EFBBDE8F087B8F1000FCC
:201920006DD007F0010018B906F49070002866D005F0010030B106F4807018B1E06B40F044
:201940000100E06305F0040030B107F0010018B1E06B40F00200E06305F0020030B107F019
:20196000010018B1E06B40F00400E06305F0080030B107F0010018B1E06B40F00800E06376
:20198000E06B68B305F0200028B106F0200010B1204600F01FFB20684069C0F38019E06BE4
:2019A00000F0080010B9B9F1000F22D0204600F0F1FA2068406900F04000B0B12068406987
:2019C00020F0400021684861606B50B11748616B0865606BFEF7AEFE10B1606B016D8847EC
:2019E0000CE02046FFF77CFF08E02046FFF778FF04E02046FFF774FF0020E0638CE705F0EB
:201A0000800030B106F0800018B1204600F02FFB82E705F0400030B106F0400018B12046C2
:201A200000F0C8FA78E700BF76E70000811F000870477047704710B5044620684068C0F3BA
:201A4000402058B12068806800F0010030B16FF00100216888602046FFF7ECFF10BD00BF37
:201A6000FEE7000000B587B0142102A8FEF79BFC00BF002001905D48006840F080005B4959
:201A800008600846006800F08000019000BF00BF00BF002001900846006840F001000860EA
:201AA0000846006800F00100019000BF00BF00BF002001900846006840F004000860084660
:201AC000006800F00400019000BF00BF00BF002001900846006840F0020008600846006825
:201AE00000F00200019000BF00BF00BF002001900846006840F0080008600846006800F079
:201B00000800019000BF00BF002240F603113848FEF796FF002241F290113648FEF790FF40
:201B2000002280213348FEF78BFF002204213248FEF786FF002248F278313048FEF780FFBC
:201B400041F6131002900120039000200490059002A92748FEF76EFE41F29010029001209B
:201B6000039000200490059002A92248FEF762FE40200290224803900020049002A91D486C
:201B8000FEF758FE4FF40070029000200390049002A91848FEF74EFE0420029001200390B8
:201BA00000200490059002A91348FEF743FE48F2783002900120039000200490059002A984
:201BC0000E48FEF737FE01224FF440710B48FEF737FF012270210948FEF732FF0122D103CE
:201BE0000648FEF72DFF07B000BD0000303802400000024000080240000C02400004024038
:201C00000000111010B50E480E4908604FF48270486000210B488160C160016141614FF42F
:201C2000802181611021C16100210162416281620A21C162FFF778FB08B1FEF778FC10BD1E
:201C400000300140A80100201CB50020009001900D480E4908603220486000210B488160D5
:201C600042F21071C160002101618161FFF7DAFD00200090019069460448FFF70CFD0348D6
:201C8000FFF766FD1CBD0000000800402C00002000BFFEE77047000002480068C0F302209C
:201CA000704700000CED00E010B5002807DA0A07140E054A00F00F031B1FD45403E00A07EC
:201CC000130E024A135410BD18ED00E000E400E0F8B504460D4616462B460022802120467A
:201CE000009600F009F828B1606D40F0200060650320F8BD0020FCE72DE9F04104460E46E2
:201D000017461D46DDF818803FE0681CE0B32DB1FEF79CFEA0EB0800A84236D3206840683D
:201D200020F0E000216848606068B0F5827F0DD1A068B0F5004F03D0A068B0F5806F05D1F5
:201D40002068006820F0400021680860A06AB0F5005F0ED100BF206800684DF6FF710840BB
:201D6000216808602068006840F400502168086000BF012084F8510000BF002084F85000B5
:201D800000BF0320BDE8F081FFE7206880683040B04201D1012000E00020B842B5D1002000
:201DA000F0E710B5FEF758FE10BD000000B597B030210BA8FEF7F7FA142106A8FEF7F3FAC4
:201DC000142101A8FEF7EFFA01200B900C90022011904105129104211391C82114910421C7
:201DE000159116910BA8FFF7CFF808B1FEF79FFB0F20069002200790002008904FF4A05075
:201E000009900A90032106A8FEF7A4FF08B1FEF78EFB042001900548049001A8FEF7C0FEFC
:201E200008B1FEF784FB17B000BD0000000308001048006840F001000E49086000200D49C0
:201E4000083108600B4800680B490840094908600A48091D0860081F006820F48020091F85
:201E60000860002003490C3108604FF0006004490860704700380240FFFFF6FE103000240E
:201E800008ED00E0002202682E4B98420ED0B0F1804F0BD02C4B984208D02C4B984205D016
:201EA0002B4B984202D02B4B984201D1012300E000231BB122F070024B681A43214B984211
:201EC00020D0B0F1804F1DD01F4B98421AD01F4B984217D01E4B984214D01E4B984211D011
:201EE0001D4B98420ED01D4B98420BD01C4B984208D01C4B984205D01B4B984202D01B4BFE
:201F0000984201D1012300E000231BB122F44072CB681A4322F080024B691A4302608B68D0
:201F2000C3620B688362074B984202D0094B984201D1012300E000230BB10B690363012345
:201F400043617047000001400004004000080040000C0040000401400040014000440140C2
:201F60000048014000180040001C00400020004010B50248FFF7B6FC10BD00006C000020B4
:201F800070B50546AC6B0020E085E0842046FFF7A7FC70BD0168C96821F490710268D1605A
:201FA0000168496921F0010102685161202180F83A10704710B504462068C06820F040000E
:201FC0002168C860202084F839002046FFF731FD002010BD70B5044694F83A00222844D150
:201FE000A068B0F5805F13D1A56A206940B920684068C0F308002880A06A801CA06219E0AC
:2020000020684068C0B22880A06A401CA06211E0206938B920684068C1B2A26A501CA06286
:20202000117007E02068406800F07F01A26A501CA0621170E08D401E80B2E08598B9206862
:20204000C06820F490702168C8602068406920F0010021684861202084F83A002046FFF7CD
:20206000E7FC002070BD0020FCE70220FAE7014691F8390021282CD18868B0F5805F0FD187
:202080000A6A1088C0F308000B685860086918B9086A801C086209E0086A401C086205E08E
:2020A0000B6A581C086218780B685860C88C401E80B2C88458B90868C06820F080000B6836
:2020C000D8600868C06840F040000B68D860002070470220FCE7000004480068044988426E
:2020E00001D1002070474FF0FF30FBE700C000080033221101B5032000F0EEF9642000F095
:20210000BBF904226946024800F00EFA002008BD00C0000800BFFEE710B5FFF773FD012057
:202120004B4981F8270002E0012000F0B1F9FEF78DFC6428F8D3012210214648FEF780FCA6
:20214000642000F0A5F900F087F80446A0B2A0F5804011380A2844D2DFE800F03D37312BF5
:20216000251F19130C050A20394908704FF48060C8613BE00920364908704FF40070C86157
:2021800034E00820324908704001C8612EE007202F4908708020C86128E006202C4908709D
:2021A0004020C86122E00520294908702020C8611CE00420264908701020C86116E00320A3
:2021C000234908700820C86110E00220204908700420C8610AE001201D4908700220C86156
:2021E00004E000201A4981F8270010BD00BF4FF4807017494881000108610846C06900010E
:202200004861084640690969484311494989B0FBF1F00F49C86008460069000188610846FA
:20222000406909694843800A0949086200F076F8012000F03BF8022000F038F8032000F0BB
:2022400035F80020024981F827000120CDE7000080010020000002402DE9F04100240025FE
:2022600000260027002210210F48FEF7E9FB9F2000F07CF8A52000F079F80546A52000F045
:2022800075F80646A52000F071F80746012210210548FEF7D5FB280440EA062040EA070403
:2022A0002046BDE8F08100000000024070B505460024002210211748FEF7C2FB012D0AD15F
:2022C000052000F053F8A52000F050F80446124880F8244016E0022D0AD1352000F046F89E
:2022E000A52000F043F804460B4880F8254009E0152000F03BF8A52000F038F804460648B6
:2023000080F82640012210210248FEF799FB204670BD0000000002408001002010B500225B
:2023200010211048FEF78CFB4B2000F01FF8002404E0A52000F01AF8601CC4B2042CF8DB62
:20234000002406E0A52000F011F807490855601CC4B2082CF6DB012210210248FEF770FB13
:2023600010BD0000000002408101002001B582B06420012301AA02A900900348FFF75EF89F
:202380009DF804000EBD0000A801002010B50248FFF751FB10BD00006C010020FFF79CFED5
:2023A00098B9FEF785F880B94FF4C0322C492D48FEF7A2F848B92C48FFF79CFE294908688C
:2023C00080F3088800BF48688047FEF751F830B92449086880F3088800BF48688047FEF792
:2023E00067F880B94FF4C0321D491E48FEF784F848B91D48FFF77EFE1A49086880F3088825
:2024000000BF4868804729E0012251021748FEF717FB012211021548FEF712FB002404E004
:202420004FF47A7000F034F8641CB4F5FA7FF7DB00224FF400710D48FEF702FB00224FF45D
:2024400080710A48FEF7FCFA002404E04FF47A7000F01EF8641CB4F5FA7FF7DBD4E70000E4
:202460000000040800000208887766550004024010B5FFF7E9FB10BD70B50446002504E062
:202480004FF47A7000F004F86D1CA542F8D370BD10B5044642F21070001B0D4908600846D1
:2024A00000680C49096848620A48FFF725F904E008480068406A064908600548006842F2F8
:2024C0000F718842F4D30348FFF725F910BD0000040000202C00002070B505460026FEF7C4
:2024E00093F9002441F28830FEF7F2F804469CB902212846FEF71CF841F28830FEF7E8F869
:2025000004460848006820F0FA00064908600CB1761E03E0002601E06FF00106FEF71EF94B
:20252000304670BD103C02402DE9F04706460F4614464FF00009CA46B046FEF765F900255C
:2025400016E057F805C06246002341460220FEF70FF9012803D008F104082D1D08E009F1D3
:20256000040904EB4400484502D24FF0FF3A01E0A542E6D300BFFEF7F1F85046BDE8F08772
:20258000FEF772FAFFF712FCFFF76CFAFFF770FFFFF7C2FDFFF702FF00BFFEE700000000C5
:2025A0000000000001020304060708090000000001020304D4250008000000200C000000BC
:2025C000C0010008E02500080C00002074080000DC0100080024F400000000000000000080
:2025E000FFFFFFFFFFFFFFFFFFFFFFFFFFFFFFFFFFFFFFFFFFFFFFFFFFFFFFFFFFFFFFFFFB
:20260000FFFFFFFFFFFFFFFFFFFFFFFFFFFFFFFFFFFFFFFFFFFFFFFFFFFFFFFFFFFFFFFFDA
:20262000FFFFFFFFFFFFFFFFFFFFFFFFFFFFFFFFFFFFFFFFFFFFFFFFFFFFFFFFFFFFFFFFBA
:20264000FFFFFFFFFFFFFFFFFFFFFFFFFFFFFFFFFFFFFFFFFFFFFFFFFFFFFFFFFFFFFFFF9A
:20400000600702D524F4803400E00127574502DDA7EB0A0000E0002000EB0A010090059854
:204020004144401A0590E00306D45B462146179A059800F0B3F90544002706E001A85A46BE
:20404000C05D179990476D1C7F1C4745F6DBE0030CD55B462146179A059800F09FF9054450
:2040600004E030205A46179990476D1C0099481E00900029F5DC08E0029802995A4600789E
:20408000491C0291179990476D1CBAF10001AAF1010AF1DC65E100000928010030313233BB
:2040A0003435363738396162636465660000000030313233343536373839414243444546C2
:2040C0000000000000F058F90544761C307800287FF4ECAD19B02846BDE8F08F620700D450
:2040E000062709F1070222F0070CFCE80223E14603F000485FEA080C02D00FF2702C0DE047
:204100005FEA045C02D50FF2682C07E05FEAC47C02D00FF2602C01E0AFF2700C4FF0FF3847
:2041200023F00043CDF850C065280CD006DC452809D046281DD047283DD13DE0662818D058
:2041400067287ED138E00021112F01DB112000E0781CCDE9000106A90EA8FFF799FCDDE91A
:204160000F010E9A03910021009207F1010A04914DE04FF000400097CDE9011006A90EA839
:20418000FFF786FCDDE90F0203920E9B11990022DDF80CA00093049211B9791C00EB010AC7
:2041A000B7EB0A0004D4C0F1FF3007F1010A0490AAEB0700019044E0012F00DA0127002160
:2041C000112F01DD112000E03846CDE9000106A90EA8FFF75DFCDDE90F010E9A0391002194
:2041E00004910092BA4621070CD40399514500DA8A46BAF1010F05DD009AAAF10101515C33
:20420000302908D0B84202DA10F1040F06DA0121CDE9011015E0AAF10101E9E7002805DC4F
:20422000049901440491AAEB000102E0411C514500DD8A460499401A401C01904FF000408C
:204240000290200704D40198504501DBCDF8048000208DF84F0002980DF14F07B0F1004FA8
:2042600025D02B200E9002984FF0020800280CDA404202902D200E9007E00A210298FCF7D1
:20428000A6F83031029007F8011DB8F10001A8F10108F2DC02980028EFD1791E0E9808701F
:2042A000307800F0200040F0450007F8020D12A8C01B00F107081498007800B1012000EB4D
:2042C0000A01019801EBE07105984144401A401E0590E00306D45B462146179A059800F08B
:2042E0005DF805441498007818B15A46179990476D1CE00324D55B462146179A059800F061
:204300004DF805441CE00498002807DBDDE90301884203DD0098405C179901E01799302034
:204320005A469047049805F10105401C04900198401E019004D12E205A46179990476D1C23
:20434000BAF10001AAF1010ADDDC05E017F8010B5A46179990476D1CB8F10001A8F1010856
:20436000F4DC5B462146179A0598ABE62D0000002B000000200000002DE9F0410446002558
:204380001E461746880404D405E039462020B0476D1C641EF9D52846BDE8F0812DE9F041B9
:2043A000044600251E469046C80301D5302700E02027880404D505E041463846B0476D1C66
:2043C000641EF9D52846BDE8F0814A68002A06D00A68531C0B6010704868401E486070471E
:2043E0000A68531C0B601070704700F001B800002DE9FC41064635A0CDE900060023AA2272
:20440000344935A0FEF7D2F8394C3A4A3046616801F014F800284DD03648A168FBF794FFF5
:20442000354DE8B13348E168FBF78EFF58B131482169FBF789FFA8B12E486169FBF784FF8A
:20444000002837D1032028702C4F2D4D10F0FF0023D0012814D002282CD003281DD103E05B
:204460000120F0E70220EEE7224A3046A16A00F0E5FF00281ED023A00323CC2200901FE010
:204480001C4A3046A16900F0D9FF30B11A4A19496132222000F0BEFE70B13046FBF74DFF71
:2044A00082B23A873146F86BFBF705FF286840F480602860BDE8FC8112A00323DC22009083
:2044C000044905A0FEF772F8F4E700006A736F6E202573001EA400082E2E5C5372635C6ECA
:2044E00065745F70726F746F636F6C2E6300000054D1002050C0002030E6002008B80020F6
:20450000A411002041636B74696F6E5374725F702E75726C20737472696E67206572726FE5
:204520007200000010B5ADF5007D04464FF400716846FBF7D9FE2046FBF7FFFE82B2694678
:204540002046FCF717FA04464FF47A7001F09EFF2146684603F004F8002804D00348016838
:2045600041F4007101600DF5007D10BDA411002000487047D8140020F8B50E460546002498
:2045800011466846FDF7FBFD01223146686803F0F9FE50B96846FDF7FAFD0028F4D068469A
:2045A000FDF7F5FD08B16FF0C8042046F8BD00003EB5040011D000F08BF805001CD015A025
:2045C00016A1CDE90010032340F26F3202951D491DA0FDF7EBFF28463EBD2BA02CA1CDE916
:2045E0000010032340F259320294164916A0FDF7DDFF6FF065003EBD06A12CA0CDE9000164
:20460000002340F25F320F490FA0FDF7CFFF01202070E0E7312E302E30000000415420636E
:204620006C69656E74285625732920696E697469616C697A65206661696C6564282564296E
:204640002E0000000E9B00082E2E5C4D6964646C6577617265735C54686972645F50617279
:2046600074795C6E65745F696F745F61745C7372635C6D6F64756C655F61745C61745F631E
:204680006C69656E742E630070436C69656E7400496E76616C696420617267756D656E7454
:2046A0002C202573203D202570000000415420636C69656E74285625732920696E69746954
:2046C000616C697A6520737563636573732E0000F8B5002504460570FCF718FC6061B0B1C4
:2046E00011494FF480563246A1F1400003F03CFE0E48A060A0F582506060C4E90365A56138
:2047000065772562A5840A48A0620020F8BD09A00090032340F227320A490BA0FDF746FFC3
:204720006FF06300F8BD00000415002004250020994D0008637265617465206C6F636B2035
:2047400065727200FA9A00082E2E5C4D6964646C6577617265735C54686972645F50617272
:2047600074795C6E65745F696F745F61745C7372635C6D6F64756C655F61745C61745F631D
:204780006C69656E742E63000EB50B0007D098B103B091B218465DF804EB00F0EFB90DA1A0
:2047A00000910BA0CDE9010303234FF4EB72104910A0FDF7FBFE08E01E48009003234FF400
:2047C000ED720B490BA0FDF7F1FE00200EBD000062756600496E76616C69642061726775DA
:2047E0006D656E742C202573203D202570000000989A00082E2E5C4D6964646C6577617284
:2048000065735C54686972645F50617274795C6E65745F696F745F61745C7372635C6D6F9C
:2048200064756C655F61745C61745F636C69656E742E630028A70008F8B5074615460E467A
:204840001420FCF745FB04000BD03846FCF740FB206078B10020C4E90305C4E9017620465E
:20486000F8BD0B480090032345220A490AA0FDF79DFE0AE01848009003234C22054906A025
:20488000FDF794FE2046FCF7B1F90020F8BD0000E4A60008049A00082E2E5C4D6964646CE0
:2048A0006577617265735C54686972645F50617274795C6E65745F696F745F61745C7372E8
:2048C000635C6D6F64756C655F61745C61745F636C69656E742E6300A0A6000810B50400A8
:2048E00008D0206808B1FCF781F92046BDE81040FCF77CB910BD000002490968016002487B
:204900007047000014000020043500200FB4F0B587B006460D9800282BD00025304C049566
:204920002F466069FCF7F6FAF5602577A6610EA90D9800F0D9F9002E4BD005A83169FDF7BC
:204940001EFC607F002826D0207F002828D004A8FFF7D2FF049923A2CDE90021029003231D
:204960004FF4B272274928A0FDF720FE6FF063072FE035A137A2CDE90021029003234FF42D
:20498000A072204920A0FDF711FE6FF0650007B0F0BC5DF814FB05A8FDF7F9FB0028D0D0F1
:2049A00005A8FDF7F4FBA0B104A8FFF7A5FF3169049A2FA3CDE90032CDE90201032340F2CD
:2049C0006F12104910A0FDF7F1FDFE2020776FF0C907A56165776069FCF7B8FA3846D6E7FC
:2049E000D81400206578656375746520636F6D6D616E642028252E2A7329206661696C6537
:204A000064210000719A00082E2E5C4D6964646C6577617265735C54686972645F506172FC
:204A200074795C6E65745F696F745F61745C7372635C6D6F64756C655F61745C61745F635A
:204A40006C69656E742E6300636D645F6578707200000000496E76616C69642061726775C1
:204A60006D656E742C202573203D2025700000006578656375746520636F6D6D616E64207A
:204A800028252E2A73292074696D656F75742025646D7321000000002DE9FE43002504463E
:204AA0008DF80850D4E902012E46A8462F46FBF71BFC41F2883926614A4602A92046FFF767
:204AC0005BFD00282FD1E068A84206D9A1689DF8080048556D1C256100E001279DF808004E
:204AE0000A2802D1B8F10D0F07D0617809B1814203D0204600F0D6FCB8B1CFB1E1680D483D
:204B0000CDE90001032340F2AE220B490BA0FDF74DFDD4E90201FBF7E7FB2661606803F0A3
:204B200017FC6FF06300BDE8FE839DF80880C3E72846F8E75CA60008DB9A00082E2E5C4DDA
:204B40006964646C6577617265735C54686972645F50617274795C6E65745F696F745F615D
:204B6000745C7372635C6D6F64756C655F61745C61745F636C69656E742E630010B50C4650
:204B80000A46014605484FF6FF730068FDF77DFC08B1002010BD204610BD0000B0000020FC
:204BA0000149487070470000D81400203EB508B1002313E01B480090032340F257221A4947
:204BC0001AA0FDF7F3FC3EBD03EB430451F824504DB101EB8404646894B15B1C9342F3D3B6
:204BE000016282843EBD03EB430027A251F820001EA1CDE900210323029040F25D220CE003
:204C000003EB430001EB800026A140681EA2CDE900210323029040F25E22034903A0FDF7A4
:204C2000C5FC3EBD28A70008CA9A00082E2E5C4D6964646C6577617265735C5468697264F5
:204C40005F50617274795C6E65745F696F745F61745C7372635C6D6F64756C655F61745C4D
:204C600061745F636C69656E742E63007572635F7461626C655B6964785D2E636D645F7011
:204C80007265666978000000496E76616C696420617267756D656E742C202573203D202526
:204CA000700000007572635F7461626C655B6964785D2E636D645F73756666697800000080
:204CC00010B50B4602464FF480610548FEF7BAFE0449086081B2BDE810400148FFF74EBF2F
:204CE000043500201400002010B5FFF7E9FF0446022102A0FFF742FFA01C10BD0D0A00009E
:204D000010B5FDF757FEBDE81040FE20FDF760BEDF2801D8FDF75CBE7047FE20FDF758BE93
:204D200005490878002805D0401E0870E030C0B2FDF74EBE70470000B814002002490870EA
:204D4000E030C0B2FDF744BEB814002005490878072805D2401C0870E030C0B2FDF738BEDB
:204D600070470000B814002010B540210348FCF71FF8012800D0002010BD000000080240E5
:204D800002494A6882434A6070470000180000202020FFF7F5BF00001CB5002535A0009073
:204DA0002E46334C2B464FF43272384938A0FDF7FDFB00270220FDF767F82046FFF76CFE01
:204DC0000028F7DD204600F06DFB30B18268002AF0D02169A0689047ECE7A0690028E9D03E
:204DE0002169A068084400F8017CA069226943685119994208D20068A1682844FBF75BFADE
:204E00002069761C05440CE0FD21217740683049CDE90010032340F2EE221C491CA0FDF728
:204E2000C5FB02222BA1A068FBF79CFA10B9A069806880B128A1A068FBF761FAA0B90422AA
:204E400027A1A068FBF78EFA70B1A0698068B042B0D10028AED02777A069C6600120A761E7
:204E6000002560772E46A5E7FF202077F4E70000D8140020636C69656E745F7061727365A0
:204E8000722073746172742E2E2E0000EC9A00082E2E5C4D6964646C6577617265735C5461
:204EA000686972645F50617274795C6E65745F696F745F61745C7372635C6D6F64756C65D4
:204EC0005F61745C61745F636C69656E742E630008A600084F4B00004552524F5200000024
:204EE0004641494C00000000FDF73CB9FDF747B930B5002207230AE0C45CA4F130050A2D7D
:204F000007D202EB82025200303A22445B1C8B42F2D3642A01DA0148027030BD18000020D3
:204F200010B5FDF7E9FC044800680068C16841F02001C16010BD000028010020FDF7A8BCAD
:204F400070B50C4D42F210710B4C081A2860216848622046FCF7CBFF286842F20F722168F9
:204F600000E0486A9042FCD32860BDE870400248FCF7CABF58010020706300202DE9F04F9A
:204F8000ADF69C0D0E4605001CD000248C210DF50160FBF7A9F940F6040103A8FBF7A4F943
:204FA0004448017800291BD043A000900323C622464947A0FDF7FAFA6FF063000DF69C0D8B
:204FC000BDE8F08F50A052A1CDE900100323B92202953E493EA0FDF7E9FA6FF06500EDE798
:204FE00001218046017003E0285D2C2802D0641CB442F9D300200DF5016204E0295D2C2944
:2050000008D01154401C641CB442F7D302E0285D2C2802D0641CB442F9D3002003AA08E033
:20502000295D0D2903D12B195B780A2B04D01154401C641CB442F3D300243C4EA14600BF6F
:2050400006EB0415286820B30DF5016B82465846FBF773F907465046FBF76FF9874204D1D6
:2050600051465846FBF770F950B10DF50160FBF764F982B20DF501612868FEF7CBFD40B117
:20508000A86830B106EB0410AA68C16803A890470BE0641C0A2CD3DB25A00090002340F264
:2050A00019120A490AA0FDF781FA484688F8009084E70000190100207072656D73672069FF
:2050C00073206465616C696E670000000F9D00082E2E5C4D6964646C6577617265735C54DC
:2050E000686972645F50617274795C6E65745F696F745F61745C7372635C6D7174745C6D89
:205100007174742E630000006461746100000000496E76616C696420617267756D656E74C1
:205120002C202573203D202570000000BC3900206E6F206D61746368696E6720616E792094
:20514000746F7069632C2063616C6C2064656661756C742068616E646C652066756E637477
:20516000696F6E002DE9F041274E0746274C3078274D30B1012811D002282BD003281AD12B
:2051800035E03846FBF7D9F882B2228239466069FBF791F8286840F010000BE03846FBF7F3
:2051A000CCF882B222843946606AFBF784F8286840F020002860144804210830FFF794FEF1
:2051C0003078401CC0B23070032801D900203070BDE8F0813846FBF7B0F882B2228539466C
:2051E000E06AFBF768F8286840F04000E2E73846FBF7A3F882B222863946606BFBF75BF8D4
:20520000286840F08000D5E7B011002008B80020A41100202DE9F047002689460746144613
:2052200022281AD10025A8460EE000BF19F80500B84205D116B184F8008011E0012602E0D6
:205240000EB104F8010B6D1C4846FBF776F8A842ECD884F80080022E02D00020BDE8F08728
:205260000120FBE7FCF793BF2DE9F05F002617468B46B0460546FBF7A5FC00244FF0FF3ABD
:2052800007EB470911E000BF00231BF8042029461846FBF759FC012802D0641C6D1C04E0C6
:2052A000761CB14501DAD04612E0BC42ECDB0FE00022134629461046FBF746FC012802D060
:2052C000641C6D1C04E0761CB14501DAD04601E0BC42EDD0FBF72EFC4046BDE8F09F0000F6
:2052E00013B505484FF6FF73012269460068FDF7CCF800981CBD0000480100202DE9FE43BF
:20530000074600200190029001201A4E0024254630700DF10408385D2C2811D030380A28D7
:2053200007D315A000900323BB22184918A0FDF73DF9395D08F80510641C6D1C062CEAD365
:2053400001A800F00FF90546C00707D015A000900323C3220D490EA0FDF728F939192A4698
:20536000491C706800F02AF8706828447060BDE8FE830000A8110020696E76616C696420C4
:20538000686578737472696E672100008DA200082E2E5C5372635C6674705F6F74612E631F
:2053A0000000000072656376206C656E206973206E6F74206576656E000000002DE9F04756
:2053C0000E460F49914600EB0108FBF7FBFB45463446002708E02288002329460120FBF70B
:2053E000B3FBA41CAD1CBF1C4F45F4DBFBF7A2FB4A4631464046BDE8F047FAF7B3BF0000DD
:205400000000040870B5FFF7AFFC0B4D04466878A04205F1080009D0FDF7C6F84FF4967183
:2054200005F10800FFF762FD6C7003E0FFF71AFF00B1AC70A87870BD2C0100202DE9F04797
:205440000746154689460846FAF777FF80463846FAF773FF0646002406E0391942464846BB
:20546000FAF796FF28B1641CB442F6DB04EB080010E004EB0800385C3A28F7D00020BDE826
:20548000F087395C2C2908D00D2906D00A2904D005F8011B401CB042F3DB002028700120B2
:2054A000EDE700002DE9F84F0446006A002837D000254FF00409D4F808B027692CE000BF88
:2054C000206A05EB4506B24650F82600FAF735FF8046216A09EB860000900858FAF72DFFA4
:2054E000064608EB0600B84215DCB8F1000F07D0216A4246584651F82A10FAF749FF50B977
:2055000086B1216A0098324609580BEB0700801BFAF73EFF30B16D1CA08CA842D0DC002046
:20552000BDE8F88F206A05EB450100EB8100F7E7F0B585B014460E461D4614220749684616
:205540000A9FFAF7B8FE0195ADF8084039466846049602F023FB05B0F0BD0000E89C0008B3
:2055600002F033BB70B50446FAF7E7FE0246002001464FF6FF7308E000EB800003EA400020
:20558000655C3038284480B2491C9142F4DB70BD2DE9F8438146002441F288374FF0C008DB
:2055A0003A4621464FF48070FFF746F905461EA1FFF7ACF96FF0630620B123A003233A2219
:2055C000009025E027A12846FFF7A0F920B11EA00323422200901BE029A12846FFF796F910
:2055E00020B119A003234A22009011E06420286142462BA12846FFF789F94A462DA12846FB
:205600002F61FFF783F940B12BA0032358220090304931A0FCF7CAFF344615B12846FFF7F2
:205620005DF92046BDE8F88341542B434744434F4E543D312C22495056345636222C22638E
:205640006D6E657422000000636D642041542B4C53485454504346472065786563206572F5
:205660007200000041542B4C5348545450434647203D22636F6E746578746964222C310079
:2056800041542B4C53485454504346473D22636F6E74656E7474797065222C3400000000FD
:2056A00041542B4C534854545055524C3D25642C3130300025730000636D642041542B4CDD
:2056C000534854545055524C206578656320657272000000ECA400082E2E5C5372635C68DA
:2056E0007474705F726571756573742E630000002DE9F8430024264641F2883221464FF4E1
:205700008070FFF799F8804617A1FFF7FFF81A4D6FF0630720B119A00323712200900AE0BA
:20572000012028701EA14046FFF7F0F878B120A0032379220090254925A0FCF737FF3C4675
:2057400008E06420FCF7A0FB322E03DC761C28780028F6D100202870B8F1000001D0FFF7C7
:20576000BDF82046BDE8F88341542B4C53485454504745543D363000C0110020636D642087
:2057800041542B4C5348545450484541444552494E464F2065786563206572720000000067
:2057A00041542B4C5348545450524541443D3200636D642041542B4C5348545450524541F4
:2057C000442065786563206572720000F9A400082E2E5C5372635C687474705F726571759A
:2057E0006573742E630000002DE9F34F81B000260F460A463546B046F8480199FAF75BFDE4
:20580000B1464C46DFF8D8B3CA469CE1002E74D00198005D7D2804D0222804D00A2812D0FD
:205820000AE000268EE10199214449782C290AD00A2908D07D2906D03DB1019921444978C5
:205840006E2939D03CE000257CE1E648FAF775FD024601980119E348009101F015FEB0B15D
:20586000E0480930FAF769FD0246DE480099093001F00AFE70B1DB481530FAF75EFD02461A
:20588000D8480099153001F0FFFD68B15AE10125D4480CE0D34802250930FAF74EFD04449C
:2058A0004FF00009641E4DE1CE4803251530FAF744FD0444002070E05C2801D10A20641C83
:2058C000B8F1080FAED2DFE808F03B040E3C708DADD8012D05D0C4A0002340F2A5120090BB
:2058E00029E0C64977E0012D08D0022D08D0C4A000234FF4E07200901DE0D1E0BF4987E063
:20590000A0F13001092911D8B9F1000F01D1ABF802A0BBF8022002EB82034FF6FF7202EAF1
:20592000430210443038ABF8020034E0B9A000234FF4DD720090AB49BDA02E31FCF736FE38
:2059400000E1012D07D0022D10D0BFA0002340F2DB120090EFE7A94901EB090209F101095E
:20596000494482F8000181F800A1EBE0A0F13001092914D8B9F1000F01D1ABF804A0BBF8D5
:20598000042002EB82034FF6FF7202EA430210443038ABF8040009F101008146D2E09DA076
:2059A000002340F2D5120090C5E7012D07D0032D10D0ABA0002340F2EB120090BBE78F49B3
:2059C00001EB090209F10109494482F8800181F880A1B7E0A74901F8090009F1010901F824
:2059E00009A0AFE0012D07D0032D10D0A2A0002340F2FB1200909EE7804901EB090209F1E7
:205A00000109494482F8000281F800A29AE0994901EB090209F10109494482F8800081F801
:205A200080A08FE0012D07D0022D10D097A0002340F2112200907EE7704901EB090209F165
:205A40000109494482F8800281F880A27AE0A0F13001092976D8B9F1000F01D1ABF806A0A8
:205A6000BBF8062002EB82034FF6FF7202EA430210443038ABF806008DE7012D05D083A0F5
:205A800000234FF40772009055E75C4901EB090209F10109494482F8000381F800A351E064
:205AA000504800253638FAF748FC0246019801194C480091363801F0E7FCE8B349482C3894
:205AC000FAF73BFC0246474800992C3801F0DCFC98B344482238FAF730FC02464148009949
:205AE000223801F0D1FC48B36D48FAF726FC02466B48009901F0C8FC98B33A481538FAF777
:205B00001CFC024637480099153801F0BDFC48B334480C38FAF711FC0246324800990C38BE
:205B200001F0B2FC90B32F482230FAF706FC02462C480099223002E00EE014E018E001F073
:205B4000A3FC48B3641CBC42FFF460AE554C564D2078552830D129E001262248B0463638D4
:205B60001EE00AE00DE002261E48B0462C3817E003261C48B046223812E00426B0464848F2
:205B80000EE005261748B046153809E0FFE706261448B0460C3803E012480726B046223007
:205BA000FAF7CBFB04444FF00009CCE73A4629460198FAF7D7FB60B155208DF80000012272
:205BC00069462046FFF750FBBAB228460199FFF74BFB8BF800A0BDE8FE8F000080D10020F9
:205BE000C01100206AA50008616374696F6E2072656376206572726F72210000B0E1002033
:205C00007374617475732072656376206572726F7221000064617461206973206F75742077
:205C20006F662072616E6728302D3929210000002E2E5C5372635C687474705F72657175A7
:205C40006573742E630000006865617274626561742072656376206572726F72210000007C
:205C6000696E666F2072656376206572726F72210000000030E50020616C657274207265F9
:205C80006376206572726F7221000000636F6E74656E742072656376206572726F7221008A
:205CA0005FA4000800000E0800100E082DE9F8430025804641F288362F46324629464FF4D1
:205CC0008070FEF7B9FD0446642020611AA12046FEF71CFE42461EA120462661FEF716FE6D
:205CE0001C4E6FF0630820B11BA00323A82200900AE0012030701FA12046FEF707FE78B170
:205D000020A00323B1220090254926A0FCF74EFC454608E06420FCF7B7F8322F03DC7F1C55
:205D200030780028F6D10020307014B12046FEF7D5FD2846BDE8F88341542B4C534854543D
:205D400050504F53543D3133302C36302C36300025730000C0110020636D642041542B4CCF
:205D60005348545450504F5354206578656320657272000041542B4C5348545450524541A5
:205D8000443D3200636D642041542B4C534854545052454144206578656320657272000013
:205DA00002A500082E2E5C5372635C687474705F726571756573742E630000002DE9F84FE2
:205DC00081460F4600260A46B04649464448FAF772FA00252C46AA464DE056B319F80400F1
:205DE000222806D109EB040149782C2907D07D2943D009EB040149786E2902D005E00026B5
:205E000038E05C2801D10A20641C4146B8F1010F05D0022905D0B8F1030F2BD103E0314941
:205E200002E0314900E0314948556D1C01F805A020E02F48FAF781FA024609EB04018B46F3
:205E40002B4801F021FBF8B129480F30FAF775FA0246274859460F3001F016FBC0B1244895
:205E60001F30FAF76AFA0246214859461F3001F00BFB90B1641CBC42AFD31E481D4C00795F
:205E80000834552818D111E00126B046184808E002261748B0460F3003E015480326B046EF
:205EA0001F30FAF74AFA04440025E4E73A4621464846FAF757FA68B155208DF800000D4807
:205EC00001226946001DFFF7CFF9BAB249462046FFF7CAF9084880F800A0BDE8F88F000067
:205EE00080D100205C0100209C0100209C0900200CA5000800000E08C0110020F8B5564827
:205F0000002340F26F22046854A000905A495BA0FCF74CFB5FA00090002340F271225649BD
:205F200056A0FCF743FB6348224661490546FDF76DFD6048C038FFF72BFB5F4C70B15FA04D
:205F40000090032340F276224B494CA0FCF72EFB2079552802D04FF0FF30F8BD2846FFF7B6
:205F6000A5FEB8B15AA0009003234FF41F72424942A0FCF71BFB2079552802D06FF00100D3
:205F8000F8BD4D4D08352846FAF7D7F901462846FFF714FF52495348FAF7F1F95048FAF7EE
:205FA000CCF9504E054670194F49FAF7E8F94E48FAF7C3F94A49284430443B31FAF7DFF955
:205FC0003046FFF7E5FA70B13CA00090032340F28D22294929A0FCF7E9FA2078552802D0EA
:205FE0006FF00200F8BDFFF783FBB0B13FA00090032340F29322204920A0FCF7D7FA2078B5
:20600000552802D06FF00300F8BD3C4C2046FAF794F901462046FFF7D1FE3949A1F13000F8
:20602000016080314160803181608031C16080310161803141618031016200F58661C161D1
:20604000803981611B49C6394162891C8162891CC1620020F8BD000000000608666C6173C6
:20606000685F65726173655F736563746F7220696E2E2E2E00000000B0A500082E2E5C5371
:2060800072635C687474705F726571756573742E63000000666C6173685F65726173655F3A
:2060A000736563746F72206F75742E2E2E000000FCA800088812002000000E086874747012
:2060C00020636F6E6E656374206661696C2100006874747020706F7374206661696C210056
:2060E00067A40008881300205C0100206874747020676574206661696C21000000100E0832
:20610000B0E10020EFF30580002800D00120704710B5ADF5007D04464FF400716846FAF716
:20612000E3F82046FAF709F982B269462046FAF721FC04464FF47A7000F0A8F921466846B7
:2061400001F00EFA002804D00348016841F4807101600DF5007D10BDA41100202DE9FF4198
:206160000C4605461746B6213548FAF7BDF82846FAF7E3F86FF063060A2809D92846FAF7B6
:20618000DCF830A1CDE900150323232202900DE02046FAF7D2F840280DD92046FAF7CDF81A
:2061A00035A1CDE900140323282202903F4940A0FCF7FCF931E03846FAF7BFF8182804D999
:2061C0004BA003232E22009023E00A2229461C48FAF7A7F81A48402221460B30FAF7A1F84C
:2061E0001748182239469D30FAF79BF8144850214C300746FAF778F82B4646A250213846F7
:206200000094FBF743FE50280BD344A003233A220090264926A0FCF7C9F9304604B0BDE8B2
:20622000F08144A045A1CDE90010CDE9025401233E221E491EA0FCF7B9F90020EEE700000E
:206240000439002070726F64756374206E616D6528257329206C656E6774683A28256C752C
:206260002920657863656564696E67206C696D69746174696F6E0000646576696365206ED1
:20628000616D6528257329206C656E6774683A28256C752920657863656564696E67206C57
:2062A000696D69746174696F6E0000001D9B00082E2E5C4D6964646C6577617265735C5477
:2062C000686972645F50617274795C6E65745F696F745F61745C7372635C6D6F64756C65A0
:2062E0005F61745C6465766963652E6300000000646576696365207365726320657863650B
:206300006564696E67206C696D69746174696F6E0000000025732573000000007365742080
:2063200064657669636520696E666F206661696C65640000312E302E3000000053444B5F6E
:206340005665723A2025732C2050726F647563745F49443A2025732C204465766963655F18
:206360004E616D653A2025730000000000B587B06021CDE90010002002900490042269465C
:206380000448FBF723FE04210248FBF7CFFE07B000BD000018640120FCF74AFA2A4C00258D
:2063A00028466580FFF7E2FF284E012220213046FAF703FD012240213046FAF7FEFC01226A
:2063C00010213046FAF7F9FC012204212048FAF7F4FC608880B2FFF7C9FF207850B1B4F981
:2063E0000210322901DB962901DA491C00E0C91C618009E0B4F90200322801DB962801DA48
:20640000401E00E0C01E6080B4F90200962801DB257004E0002802DC65800120207000F032
:206420003BF8B4F9020028B132280ADA207820B1282003E04FF4FA7000E01E20FBF724FDF1
:20644000C7E71420FAE70000C014002000040240000C024010B50948FCF7A6F8FA210748E0
:20646000FEF744FD0548001DFCF79EF80348FA21BDE81040001DFEF739BD00004814002014
:2064800001460148FEF732BD4C14002001460148FEF72CBD4814002010B50E48FEF7E2FE2E
:2064A0000D4C4FF4807108B1002200E001222046FAF783FC0748001DFEF7D4FE4FF40071B4
:2064C00008B1002200E001222046BDE81040FAF774BC0000481400200004024094B0FAF76B
:2064E000C9FCFCF7D7FBFCF799F8FCF747F9FEF725FD142216496846F9F7DDFE0021684667
:2065000001F04CFB134C124914226061143105A8F9F7D1FE002105A801F040FB0C49A06191
:20652000142228310AA8F9F7C6FE00210AA801F035FB0749A06114223C310FA8F9F7BBFE1E
:2065400000210FA801F02AFB01F0B9FAFEE70000209D00082C01002001460020842900D0CE
:20656000C81C7047FEB5FEF703F804006FF0630512D02078012815D02046FEF719F8050019
:206580001AD028A0CDE9000503234FF48B722C492C48FCF70BF842E02BA0032340F20512ED
:2065A000009004E02DA003234FF48672009024492448FBF7FBFF32E030A00090002340F21D
:2065C0001B121F491F48FBF7F1FF0C2231492046FEF7ECFAA28C30A0216A8DE807000023CC
:2065E00040F22B1216491748FBF7E0FF00264FF497770EE0206A06EB4601002350F82100EA
:206600002CA1CDE900103A460D490E48FBF7CEFF761CA08CB042EDDC2020FEF7B1FB284634
:20662000FEBD0000617420636C69656E7420696E6974206661696C2C7265743A2564000061
:20664000C49B000878A800086E6F20617420636C69656E7420676574000000006174206382
:206660006C69656E7420686173206265656E20696E697469616C697A6564000061742063DA
:206680006C69656E7420696E69742073756363657373000020000020757263207461626CA4
:2066A0006520616464723A25702C2073697A653A25640000257300002DE9F843002441F2E1
:2066C00088373A4621464020FEF7B6F806460120FEF756FB4FF4FA684046FBF7D5FB134915
:2066E0003046FEF713F96FF0630588B14046FBF7CBFB0E493046FEF709F948B10CA00090EC
:20670000032340F20B2211491148FBF74FFF2C463946012002F0D4FC00B92C4616B13046C5
:20672000FEF7DCF82046BDE8F883000084A70008636D642041542B4C534D5154544F5045FA
:206740004E2065786563206572720000F19B000878A800082DE9F84380460F461646002415
:206760001046F9F7EAFDB0F56C7F0FD917A00090002340F23F2219491948FBF717FF324634
:206780003946404600F04CF804461CE041F2883200214020FEF750F8054643463A4611A1C9
:2067A0000096FEF7B3F850B116A00090032340F245220A490A48FBF7F9FE6FF0630415B183
:2067C0002846FEF78BF82046BDE8F8835055424C20636D642075736564000000159C00083C
:2067E00078A8000841542B4C534D5154545055423D312C25642C302C222573222C22257378
:2068000022000000636D642041542B4C534D51545450554220657865632065727200000048
:20682000F8B516460D46074641F2883200214020FEF702F804463E20FEF7B2F93046F9F7A4
:206840007CFD00902B463A4616A12046FEF75EF828B11BA0032340F25E22009014E0304670
:20686000F9F76BFD0546FDF783FE2A463146FDF78BFF05463046F9F760FDA84208D017A014
:20688000032340F26622009018491948FBF78EFE14B12046FEF722F80020FEF781F900205F
:2068A000F8BD000041542B54434D5154545055424C3D222573222C25642C256400000000D0
:2068C000636D642041542B54434D5154545055424C206578656320657272000073656E64BC
:2068E000206461746120657272000000259C000878A800082DE9F04186B0054602900E46D6
:206900008DF80C1002A8CDE9042301F04BFC04000AD027A0CDE9000403234FF421722C4947
:206920002C48FBF743FE32E00220FEF729FA41F28838424600214020FDF77EFF07462B4639
:20694000324625A1FDF7E2FF6FF0630648B128A00090032340F28F221D491E48FBF726FE20
:2069600034464146022002F0ABFBA0B127A0CDE90005002340F29A2215491648FBF716FEB6
:2069800017B13846FDF7AAFF0220FEF7F9F906B02046BDE8F08121A0CDE90005032340F205
:2069A00095220B490B48FBF701FE3446E8E7000072656769737465722073756220746F70FD
:2069C0006963206572722C7265743A2564000000369C000878A8000841542B4C534D5154F5
:2069E000545355423D312C25642C222573220000636D642041542B54434D51545453554253
:206A0000206578656320657272000000257320737562207375636365737300002573207302
:206A20007562206661696C0038B518A00090032355221F491FA0FBF7B9FDF9F765FF2A4C58
:206A4000002280212046FAF7B8F90122150229462046FAF7B2F94FF47A70FAF769F801221E
:206A600080212046FAF7A9F90120FAF761F8002229461E48FAF7A1F91D4801F069FC4FF491
:206A8000FA50FAF755F8002038BD00006D6F64756C6520706F776572206F6E206973206EFF
:206AA0006F7420696D706C656D656E7400000000C59C00082E2E5C4D6964646C657761724E
:206AC00065735C54686972645F50617274795C6E65745F696F745F61745C706F72745C68B1
:206AE000616C5F61742E63000008024000000240C41400207CB50024032802D0042809D029
:206B000042E0FBF70FFF04003ED020A003234FF4777207E0FBF706FF04000AD01BA0032392
:206B20004FF47972CDE9000421492248FBF73EFD2AE0FFF7E3F96FF06305002809DA1EA000
:206B4000009003234FF47C7219491A48FBF72EFD18E000F09DFA38B11DA1CDE9001003235B
:206B60004FF47E7212490AE000F050F804000BD01EA0CDE900040E4903234FF480620D4817
:206B8000FBF714FD28467CBD20467CBD4E3231207265676973746572206E6574776F726B4C
:206BA000206661696C2C7265743A256400000000AD9C000878A8000868747470207265713E
:206BC00075657374206661696C656421000000006D71747420746C7320636F6E666967205F
:206BE0006661696C2C7265743A2564006D7174742063616C6C206E6574776F726B2066612C
:206C0000696C2C7265743A2564000000F8B500244020FEF7B5F841F288373A46002180205F
:206C2000FDF70AFE064615A1FDF770FE6FF0630528B117A0032340F25732009018E03946B5
:206C4000402002F03DFA70B118A00090002340F263321B491B48FBF7A9FC16B13046FDF7C9
:206C60003DFE2046F8BD18A0032340F25E32009013491448FBF79AFC2C46EEE741542B4CFB
:206C8000534D51545443414C4C3D312C31000000636D642041542B4C534D51545443414CAB
:206CA0004C20657865632065727200004D5154542043414C4C2073756363657373000000BF
:206CC0008B9C000878A800084D5154542043414C4C206661696C00001CB589A00090002372
:206CE00077228D498DA0FBF761FC00F09DFC40B199A1CDE9001003237E22874987A0FBF780
:206D000055FC9B4C9B4D40F6B8394FF47A7700262E6000F057FE40B197A00090032385227A
:206D20007D497EA0FBF742FCF2E70420FFF7E2FE70B195A1CDE9001003239022764977A0A1
:206D4000FBF734FC2868401C28600A28EDDDDFE7DFF8C481C5F80060A8F1160808F12803C7
:206D600093E80700D8F83430FFF7A6FC70B18DA1CDE9001003239D22674968A0FBF716FC0F
:206D80002868401C28600A28E8DDC1E73846FFF77DFB3846FFF774FB8AA000900023A8226A
:206DA0005D495EA0FBF702FC00238D4A19462068FFF7A0FD48B18BA1CDE900100323AF22E9
:206DC000554956A0FBF7F2FBEEE74846FFF75EFB8BA000900023B6224F4950A0FBF7E6FB7D
:206DE00000238D4A1946206AFFF784FD48B17DA1CDE900100323BC22474948A0FBF7D6FB1D
:206E0000EEE74846FFF742FB7DA000900023C322414942A0FBF7CAFB0023804A1946E0696F
:206E2000FFF768FD48B16FA1CDE900100323C92239493AA0FBF7BAFBEEE741F28830FFF75E
:206E400025FB77A000900023D022334933A0FBF7ADFB0023784A1946A069FFF74BFD48B1E9
:206E600060A1CDE900100323D6222B492BA0FBF79DFBEEE741F65830FFF708FB60A0009047
:206E80000023DD22244925A0FBF790FBA06A40B96AA1CDE900100323E2221F491FA0FBF70A
:206EA00085FB3448001DFBF77FFBA06A01883148001DFEF719F8DFF8B4A12E48001DFEF76A
:206EC000D1F968B1A06A01882A48001DFEF70CF8DAF8001041F08001CAF8001000F012FB51
:206EE00000F062FC48B12868401C28603C283FF735AF3846FAF7C8FFDFE70A202E60F9E7C5
:206F00006D7174745F64656D6F5F7461736B20456E7472792E2E2E00869D00082E2E5C4DA9
:206F20006964646C6577617265735C54686972645F50617274795C6E65745F696F745F6159
:206F4000745C73616D706C655C6D7174745F73616D706C652E6300006E657420707265702D
:206F6000617265206661696C2C5265743A25640080E10020500100206E65742073746172F0
:206F800074206661696C00006E6574776F726B20636F6E6E656374206661696C2C5265749A
:206FA0003A2564006D6F64756C65206D71747420636F6E6E206661696C2C5265743A2564FE
:206FC000000000006D6F64756C65206D71747420636F6E6E2073756363657373000000005E
:206FE000EB4300086D6F64756C65206D71747420737562206661696C2C5265743A256400AF
:207000006D6F64756C65206D71747420737562207375636365737300655100082545000851
:207020006D6F64756C652071747420737562207375636365737300001161000856706F74AB
:20704000546F70696373496E666F2E6865617274626561745F76616C2073686F756C6420E3
:207060006E6F74206265202564000000BC1100201CB5002002460090044B4FF4006101A8DD
:20708000FEF756FA0020FEF76BFA1CBDD96C00087CB5002441F2883221464020FDF7CCFB47
:2070A0000646A2A1FDF732FC6FF0630540B1A1A0009003232022A449A4A0FBF777FA2C4628
:2070C000032001F0AFF90246A5A13046FDF71EFC48B1ABA00090032329229B499BA0FBF78C
:2070E00065FA2C460BE0032001F09CF99CA1CDE9001000232F22944994A0FBF757FA04203C
:2071000001F090F9024696A13046FDF7FFFB48B19BA00090032334228B498CA0FBF746FAA0
:207120002C460BE0042001F07DF98DA1CDE9001000233A22844985A0FBF738FA052001F0C8
:2071400071F9024686A13046FDF7E0FB48B18CA0009003233F227C497CA0FBF727FA2C466F
:207160000BE0052001F05EF97DA1CDE9001000234522754975A0FBF719FA002001F052F915
:20718000024686A13046FDF7C1FB48B17CA0009003234B226C496DA0FBF708FA2C460BE00F
:2071A000002001F03FF97DA1CDE9001000235122654966A0FBF7FAF9012001F033F90246ED
:2071C00076A13046FDF7A2FB48B16DA00090032356225D495DA0FBF7E9F92C460BE0012068
:2071E00001F020F96DA1CDE9001000235C22564956A0FBF7DBF9022001F014F9024667A145
:207200003046FDF783FB48B15DA00090032361224D494EA0FBF7CAF92C460BE0022001F0AE
:2072200001F95EA1CDE9001000236722464947A0FBF7BCF9062001F0F5F802465FA1304604
:20724000FDF764FB48B14EA0009003236D223E493EA0FBF7ABF92C460BE0062001F0E2F866
:2072600056A1CDE9001000237322374937A0FBF79DF9072001F0D6F8024650A13046FDF731
:2072800045FB48B13EA00090032377222E492FA0FBF78CF92C460BE0072001F0C3F847A1B3
:2072A000CDE9001000237D22274928A0FBF77EF9082001F0B7F8024640A13046FDF726FB29
:2072C00048B12FA00090032381221F491FA0FBF76DF92C460BE0082001F0A4F837A1CDE96E
:2072E000001000238722184918A0FBF75FF93B4A3BA13046FDF70AFB48B121A0009003230F
:207300008D22114911A0FBF751F92C4607E03CA00090002393220C490CA0FBF747F916B1E0
:207320003046FDF7DBFA20467CBD00004154453000000000636D64204154453020657865A5
:207340006320657272000000DEA500082E2E5C5372635C6D7174745F746C732E6300000091
:2073600041542B4C534D5154544346473D226365727469666963617465222C22257322008C
:20738000636D642041542B4C534D51545443464720657865632065727200000041542B4CEA
:2073A000534D5154544346473D22636C69656E7463657274222C22257322000041542B4CA2
:2073C000534D5154544346473D22707269766174656B6579222C2225732200005C010020FA
:2073E00041542B4C534D5154544346473D22636C69656E746964222C222573220000000043
:2074000073657420636C69656E74206964206F6B000000000FB470B505AC07E025280CD0F1
:20742000114900F002FE0498401C0490049908780028F3D170BC5DF814FB491C0491087863
:20744000632803D07328EED120CC08E014F8040B00F00CF8E7E700BF00F008F86D1C2878EB
:207460000028F9D1DFE700004C01002001B505484FF6FF73012269460068FBF706F89DF86E
:20748000000008BD2801002030B5002307E0C45CCD5CAC4202D04FF0FF3030BD5B1C93423F
:2074A000F5D3002030BD000000B5A1B0024609A16846FCF7ABFA6846F8F73FFF81B208485B
:2074C0000022A0F8001842546946F8F758FF21B0034800BD7B22435351223A25647D000090
:2074E00050C9002010B50022134602E0845C521C23448A42FADB7F20B3FBF0F100FB113071
:2075000010BD000038B5002441F2883221468020FDF792F905460AA1FDF7F8F950B10AA094
:207520000090032340F2B1320B490C48FBF73EF86FF0630415B12846FDF7D0F9204638BD9E
:2075400041542B4353510000636D642041542B4353512065727200009E9C000878A80008B6
:20756000FEB504460078862801D00120FEBD09290CD3B4F80500891E00F1090295B28D42C0
:2075800004DB661916F8011C652901D00020FEBD801D81B2601CFFF7A5FF16F8021C814253
:2075A0000AD00CA2CDE90020029100234FF4E072154916A0FAF7FAFF2079012807D009285A
:2075C00005D0842803D117484168491C41602846FEBD0000636865736B73756D2065727253
:2075E0006F723A20636B73756D20256420213D20646174615B7061727365725F6C656E20A6
:207600002D20325D2025640043A400082E2E5C5372635C6E65745F70726F746F636F6C2E74
:2076200063000000B0110020F0B5B1B0FCF7A0FF0546B82102A8F8F757FE0A2102A8F9F797
:20764000F1FB06B20DF1130040210746F9F7BAFB04B234430DF1A50018210646F9F7CAFB18
:2076600000B2204304000BD022A0009003232822254926A0FAF79AFF6FF0630031B0F0BD46
:207680000420FEF76FFF40B12FA0009003232E221D491EA0FAF78AFF2AE030A00090002372
:2076A0003322194919A0FAF781FF45B1AB6A33B100224FF4806130A80095FDF739FF4FF4D8
:2076C0007A742878012803D02046FAF7DDFBF8E73246394602A8FEF741FD040008D024A09E
:2076E000CDE9000403234422074908A0FAF75EFF2046C3E7476574206465766963652069B5
:207700006E666F2065727200709D00082E2E5C4D6964646C6577617265735C546869726428
:207720005F50617274795C6E65745F696F745F61745C73616D706C655C6D7174745F736125
:207740006D706C652E6300006D6F64756C6520696E6974206661696C656400006D6F647556
:207760006C6520696E697420737563636573730064657620696E666F20696E697420666185
:20778000696C2C5265743A256400000010B5F9F7C9F80448FAF708FFBDE8104004210148DD
:2077A000FDF7A2BBB81100202DE9FC416648FDF759FD38B164490020083908700A21624800
:2077C000FDF792FB604C241D2568002D7AD04FF4006739465D48F8F787FD5D4E280622D526
:2077E0000A20FFF761FE03465AA239465748FAF74DFB564A0021B068FEF7ACFF050004D01C
:2078000055A0032340F2722227E0206820F0800020604FF49670FEF739FE56A000234FF417
:207820001E72009029E05948E9072BD0B0F84020416C012000F004F9034646A23946434895
:20784000FAF724FB414A00215148FEF783FF05000AD041A0032340F29222CDE900054D493F
:207860004DA0FAF7A3FE4FE02068002320F00100206040A040F297220090464946A0FAF75D
:2078800095FE41E0A90622D502884168072000F0D7F803462FA239462C48FAF7F7FA2B4813
:2078A000007818B942A12948F8F769FD274A00217069FEF74FFF050005D027A0032340F22F
:2078C000A722CAE721E0206820F020001BE069061DD50289C168082000F0B2F803461DA29B
:2078E00039461A48FAF7D2FA184A00217068FEF731FF050004D018A0032340F2B722ACE715
:20790000206820F0400020602846BDE8FC81E906FBD5028BC169092000F092F803460DA26E
:2079200039460A48FAF7B2FA084A0021B069FEF711FF050004D008A0032340F2C6228CE714
:20794000206820F01000DEE7B811002050C1002080E10020257300006D6F64756C65206D74
:2079600071747420707562206661696C2C5265743A2564006D6F64756C65206D71747420E5
:2079800070756220737563636573730008B8002091E600204EA400082E2E5C5372635C6E6C
:2079A00065745F70726F746F636F6C2E630000007061796C6F61645B305D203D3D203021AF
:2079C0000000000038B50024FDF7E2F9FFF72CF838B105A0009003235222094909A0FAF709
:2079E000E5FD204638BD00006D6F64756C6520706F776572206F6E206661696C00000000BE
:207A00007C9D00082E2E5C4D6964646C6577617265735C54686972645F50617274795C6E8C
:207A200065745F696F745F61745C73616D706C655C6D7174745F73616D706C652E6300001C
:207A40007CB514460D46B2F5617F09D909A0CDE9000403234FF4CA720D490EA0FAF7A6FD3F
:207A6000224629461148F8F726FC10490020085508467CBD73697A65A3BA256420697320AB
:207A80006F7574206F662072616E67652100000031A400082E2E5C5372635C6E65745F701C
:207AA000726F746F636F6C2E6300000050C9002010B500B9012000F085FF002010BD10B535
:207AC00001F06EF8002010BD012001F063BB000038B5002405460094FEF714FB90B169464E
:207AE000284601F037FD012801D0FF2038BD009888B10A494FF080500860BFF34F8FBFF308
:207B00006F8F08E000231A461946284601F072FC012800D0FF24204638BD000004ED00E088
:207B200038B505004FF0000000900FD00024481C0ED001B10C46FEF7E5FAB8B16A4600212D
:207B4000284601F055FD012818D104E0802038BD4FF0FF34EFE7009890B10A494FF0805066
:207B60000860BFF34F8FBFF36F8F09E0002322461946284601F044FB012801D0FF2038BDDE
:207B8000002038BD04ED00E010B501F0E1FD012803D0BDE8104001F0E7BA10BD3EB50446DE
:207BA0000D46B0F90800FEF7D7FC02A9CDE90001208A2B4682B2D4E9001001F09DFD0128C7
:207BC00001D000203EBD02983EBD10B500F020FF002010BD2DE9F041184C0F460546E668CA
:207BE0002068001D00F00EFE38B9206890F82C1001208840216981432161681C07D137B1AA
:207C00002168BDE8F0410E48091D00F033BE20683544B5424560216805D2A06BBDE8F041CA
:207C2000091D00F00FBE606B091D00F00BFEA06A854200D2A562BDE8F0810000581400202B
:207C4000F0E700202DE9F041054600F01FFE2E4CA068401CA06020682C4F10B1606940B330
:207C60002DE02560A068012829D1002606EB860007EB800000F0D8FD761C072EF6D3234878
:207C80008C3000F0D1FD2148A03000F0CDFD1F48B43000F0C9FD1D48C83000F0C5FD1B4804
:207CA000DC3000F0C1FD19488C3060631430A06305E02068E96AC06A884200D82560606A08
:207CC000401C6062E96A0120226988401043206101EB810007EB8000291D00F0CBFD00F01E
:207CE000F5FD606900280CD02068E96AC06A884207D207494FF080500860BFF34F8FBFF314
:207D00006F8FBDE8F08100005814002014E7002004ED00E070B5114E114C17E000F074FF9C
:207D20003068B8B101F00CFE00F0B0FDF068C568281D00F067FDA068401EA0606068401E00
:207D4000606000F0C3FD284600F055F860680028E4D170BD01F0F4FDF8E70000DCE7002092
:207D60005814002030B4026C0B46002A0BD0C1681144C1604468A14201D30168C16030BC57
:207D80001846F8F798BA30BC70472DE9F041856B174604460026026C82B1C7B1E068F8F74D
:207DA0008AFAE168206C091AE1602268914202D26168081AE060022F16D017E02068A8B9B3
:207DC000606801F037FD0646002060600EE0A068F8F771FA216CA0680844A06061688842C6
:207DE00004D32068A06001E005B16D1E6D1CA5633046BDE8F08110B50446006B00F07AFD04
:207E00002046BDE8104000F075BD000010484FF4F041420706D0C01D0D4920F00700411A55
:207E2000C1F5F0410B4A00230144C2E900030839103A21F0070111604B600B600B1AC0E9F7
:207E4000001393604FF000405360D0607047000004E80020A4140020074C4FF08056074D63
:207E6000FFF758FF20680128FAD92E60BFF34F8FBFF36F8FF4E7000014E7002004ED00E09C
:207E80002DE9F0479A46DDE9098481466FF00303206B03EB82021044089D20F007067007AC
:207EA00007D0502080F31188BFF34F8FBFF36F8FFEE723180A5C83F834200A5C12B1401C55
:207EC0001028F6D3002784F84370072D00D30625E562C4E91157201D00F0B1FC04F11800D6
:207EE00000F0ADFC2461C5F107006462A061E76484F8507052464946304600F011F9206042
:207F0000B8F1000F01D0C8F80040BDE8F087000030B5114900E011460A688242FBD34B688F
:207F20005C18844203D1406818444860084643681C18944209D1084C103C2468A24209D0C1
:207F400052681A4442600A6812680260814200D0086030BD0460F9E7A414002010B5044606
:207F600000F094FCA06B28B15FF0000400F0AEFC204610BD0124F9E70648416B096829B133
:207F8000416BC968C9684968816270474FF0FF31FAE700005814002008484068401C4FF019
:207FA000500080F3118804D0BFF34F8FBFF36F8FFEE7BFF34F8FBFF36F8FFEE7AC14002067
:207FC0002DE9F041044600F061FC94F9455004F1240609E0606A48B1304601F077FC08B143
:207FE00000F06CFD6D1E6DB2002DF3DC4FF0FF3684F8456000F06AFC00F048FC94F9445042
:2080000004F1100709E0206948B1384601F05EFC08B100F053FD6D1E6DB2002DF3DC84F805
:208020004460BDE8F04100F051BCFDF759B900002DE9F0410546002700F0E6FD314E306820
:2080400008B9FFF7E3FEF06805424BD1C5B3083568070ED005F00700C0F10800054468075E
:2080600007D0502080F31188BFF34F8FBFF36F8FFEE72DB37068854234D82248103001460C
:208080000C6801E020460C466168A94202D221680029F7D131688C4224D00768216801601D
:2080A00060680837411B10290FD96019420708D0502080F31188BFF34F8FBFF36F8FFEE701
:2080C00010E041606560FFF723FF61687068401A7060B268904200D2B060F06801430020DD
:2080E000C4E9000101F02CFC780707D0502080F31188BFF34F8FBFF36F8FFEE73846BDE89F
:20810000F0810000941400200449086818B10868826C521C8264086870470000581400203B
:2081200010B5031F4FF080741C601B1F21F001011960191F024B0B60143940380A6010BDF7
:20814000997F0008F8B5044600680E464FF0FF37D0B1F068C0B1124D01226946304600F0F6
:2081600011F9002811D0B4F90400B4F9061088420ADA23689DF80020411CA1801A549DF809
:2081800000000A2802D004E03846F8BD29780D2901D02870E0E700202870B4F90400F8BD9F
:2081A0001C0100202DE9FE4F050011D041486FF06304A1460178002918D03FA000900323E4
:2081C0002122474947A0FAF7F1F92046BDE8FE8F52A054A1CDE9001003231A220295404943
:2081E00040A0FAF7E3F96FF06500EFE701210024DFF84C8182460170A34608EB0417464692
:20820000386818B12968F8F79FF848B1641C0A2CF3DBA868002848D019F1640F0FD041E094
:20822000A86840B908EB04100068F8F7DFFCC7F800B0C7F808B0A868002650B935E000249E
:2082400006EB0410006818B1641C0A2CF8DB29E000260A2C26DA2868F8F76FF8F8F738FEEF
:20826000070014D02868F8F768F801463846F8F73BF838462968F8F782F808EB0410076067
:20828000A968816029790171E968C1600EE02DA0009003235222124912A0FAF787F96FF0A4
:2082A000660603E06FF0CA0600E000268AF800B030468BE7190100207072656D73672069CF
